{
  "contractName": "ContractFactory",
  "abi": [
    {
      "constant": false,
      "inputs": [],
      "name": "createContract",
      "outputs": [
        {
          "name": "",
          "type": "uint256"
        }
      ],
      "payable": true,
      "stateMutability": "payable",
      "type": "function"
    },
    {
      "constant": true,
      "inputs": [
        {
          "name": "",
          "type": "uint256"
        }
      ],
      "name": "names",
      "outputs": [
        {
          "name": "",
          "type": "string"
        }
      ],
      "payable": false,
      "stateMutability": "view",
      "type": "function"
    },
    {
      "constant": true,
      "inputs": [
        {
          "name": "",
          "type": "uint256"
        }
      ],
      "name": "contracts",
      "outputs": [
        {
          "name": "",
          "type": "address"
        }
      ],
      "payable": false,
      "stateMutability": "view",
      "type": "function"
    },
    {
      "constant": false,
      "inputs": [
        {
          "name": "value",
          "type": "string"
        },
        {
          "name": "id",
          "type": "uint256"
        }
      ],
      "name": "setValueOn",
      "outputs": [],
      "payable": false,
      "stateMutability": "nonpayable",
      "type": "function"
    },
    {
      "constant": true,
      "inputs": [
        {
          "name": "id",
          "type": "uint256"
        }
      ],
      "name": "getContractAddress",
      "outputs": [
        {
          "name": "",
          "type": "address"
        }
      ],
      "payable": false,
      "stateMutability": "view",
      "type": "function"
    }
  ],
  "bytecode": "0x6060604052341561000f57600080fd5b6108cf8061001e6000396000f30060606040526004361061006d576000357c0100000000000000000000000000000000000000000000000000000000900463ffffffff168063412a5a6d146100725780634622ab0314610090578063474da79a1461012c5780639e119dba1461018f578063aefa7d98146101f5575b600080fd5b61007a610258565b6040518082815260200191505060405180910390f35b341561009b57600080fd5b6100b160048080359060200190919050506102ea565b6040518080602001828103825283818151815260200191508051906020019080838360005b838110156100f15780820151818401526020810190506100d6565b50505050905090810190601f16801561011e5780820380516001836020036101000a031916815260200191505b509250505060405180910390f35b341561013757600080fd5b61014d60048080359060200190919050506103a6565b604051808273ffffffffffffffffffffffffffffffffffffffff1673ffffffffffffffffffffffffffffffffffffffff16815260200191505060405180910390f35b341561019a57600080fd5b6101f3600480803590602001908201803590602001908080601f016020809104026020016040519081016040528093929190818152602001838380828437820191505050505050919080359060200190919050506103e5565b005b341561020057600080fd5b610216600480803590602001909190505061054c565b604051808273ffffffffffffffffffffffffffffffffffffffff1673ffffffffffffffffffffffffffffffffffffffff16815260200191505060405180910390f35b600080610263610595565b604051809103906000f080151561027957600080fd5b90506001805480600101828161028f91906105a5565b9160005260206000209001600083909190916101000a81548173ffffffffffffffffffffffffffffffffffffffff021916908373ffffffffffffffffffffffffffffffffffffffff1602179055505060018054905091505090565b6000818154811015156102f957fe5b90600052602060002090016000915090508054600181600116156101000203166002900480601f01602080910402602001604051908101604052809291908181526020018280546001816001161561010002031660029004801561039e5780601f106103735761010080835404028352916020019161039e565b820191906000526020600020905b81548152906001019060200180831161038157829003601f168201915b505050505081565b6001818154811015156103b557fe5b90600052602060002090016000915054906101000a900473ffffffffffffffffffffffffffffffffffffffff1681565b60006001828154811015156103f657fe5b906000526020600020900160009054906101000a900473ffffffffffffffffffffffffffffffffffffffff1690508073ffffffffffffffffffffffffffffffffffffffff166393a09352846040518263ffffffff167c01000000000000000000000000000000000000000000000000000000000281526004018080602001828103825283818151815260200191508051906020019080838360005b838110156104ac578082015181840152602081019050610491565b50505050905090810190601f1680156104d95780820380516001836020036101000a031916815260200191505b5092505050600060405180830381600087803b15156104f757600080fd5b6102c65a03f1151561050857600080fd5b5050506000805480600101828161051f91906105d1565b9160005260206000209001600085909190915090805190602001906105459291906105fd565b5050505050565b60008060018381548110151561055e57fe5b906000526020600020900160009054906101000a900473ffffffffffffffffffffffffffffffffffffffff16905080915050919050565b60405161018d8061071783390190565b8154818355818115116105cc578183600052602060002091820191016105cb919061067d565b5b505050565b8154818355818115116105f8578183600052602060002091820191016105f791906106a2565b5b505050565b828054600181600116156101000203166002900490600052602060002090601f016020900481019282601f1061063e57805160ff191683800117855561066c565b8280016001018555821561066c579182015b8281111561066b578251825591602001919060010190610650565b5b509050610679919061067d565b5090565b61069f91905b8082111561069b576000816000905550600101610683565b5090565b90565b6106cb91905b808211156106c757600081816106be91906106ce565b506001016106a8565b5090565b90565b50805460018160011615610100020316600290046000825580601f106106f45750610713565b601f016020900490600052602060002090810190610712919061067d565b5b5056006060604052341561000f57600080fd5b61016f8061001e6000396000f30060606040526004361061004c576000357c0100000000000000000000000000000000000000000000000000000000900463ffffffff16806393a0935214610051578063ef5fb05b146100ae575b600080fd5b341561005c57600080fd5b6100ac600480803590602001908201803590602001908080601f016020809104026020016040519081016040528093929190818152602001838380828437820191505050505050919050506100df565b005b34156100b957600080fd5b6100c16100f5565b60405180826000191660001916815260200191505060405180910390f35b6100e8816100fe565b6000816000191690555050565b60008054905090565b600061010861012f565b8290506000815114156101215760006001029150610129565b602083015191505b50919050565b6020604051908101604052806000815250905600a165627a7a72305820d9d9be2e8c3a61c5e6971aa19dea5754b00188ccaa33ae4487ebe8b5208332980029a165627a7a723058208b79a8fc4c63e7cf7db24ec02f7770765d1924c63b745337d58c0feddcf409750029",
  "source": "pragma solidity ^0.4.18;\n\nimport \"./SimpleContract.sol\";\n\ncontract ContractFactory {\n\n    string[] public names;\n    address[] public contracts;\n\n    function createContract() public payable returns (uint){\n        address newContract = new SimpleContract();\n        contracts.push(newContract);\n        return contracts.length;\n    }\n\n\n    function setValueOn(string value, uint id) public {\n        SimpleContract ctract = SimpleContract(contracts[id]);\n\n        ctract.setValue(value);\n        names.push(value);\n    }\n\n    function getContractAddress(uint id) view public returns (address) {\n        address addr = SimpleContract(contracts[id]);\n        return addr;\n    }\n}\n",
  "sourcePath": "/Users/jorgeandrealves/Documents/github/JojocaDapp/contracts/ContractFactory.sol",
  "compiler": {
    "name": "solc",
    "version": "0.4.18+commit.9cf6e910.Emscripten.clang"
  },
  "schemaVersion": "1.0.1",
  "updatedAt": "2018-01-20T19:45:11.197Z"
}