{
  "contractName": "SimpleContract",
  "abi": [
    {
      "constant": false,
      "inputs": [
        {
          "name": "value",
          "type": "string"
        }
      ],
      "name": "setValue",
      "outputs": [],
      "payable": false,
      "stateMutability": "nonpayable",
      "type": "function"
    },
    {
      "constant": true,
      "inputs": [],
      "name": "sayHello",
      "outputs": [
        {
          "name": "",
          "type": "bytes32"
        }
      ],
      "payable": false,
      "stateMutability": "view",
      "type": "function"
    }
  ],
  "bytecode": "0x6060604052341561000f57600080fd5b61016f8061001e6000396000f30060606040526004361061004c576000357c0100000000000000000000000000000000000000000000000000000000900463ffffffff16806393a0935214610051578063ef5fb05b146100ae575b600080fd5b341561005c57600080fd5b6100ac600480803590602001908201803590602001908080601f016020809104026020016040519081016040528093929190818152602001838380828437820191505050505050919050506100df565b005b34156100b957600080fd5b6100c16100f5565b60405180826000191660001916815260200191505060405180910390f35b6100e8816100fe565b6000816000191690555050565b60008054905090565b600061010861012f565b8290506000815114156101215760006001029150610129565b602083015191505b50919050565b6020604051908101604052806000815250905600a165627a7a72305820d9d9be2e8c3a61c5e6971aa19dea5754b00188ccaa33ae4487ebe8b5208332980029",
  "source": "pragma solidity ^0.4.18;\n\ncontract SimpleContract {\n\n    bytes32 _value;\n\n    function stringToBytes32(string memory source) private pure returns (bytes32 result) {\n        bytes memory tempEmptyStringTest = bytes(source);\n        if (tempEmptyStringTest.length == 0) {\n            return 0x0;\n        }\n\n        assembly {\n            result := mload(add(source, 32))\n        }\n    }\n\n    function setValue(string memory value) public {\n        _value = stringToBytes32(value);\n    }\n\n    function sayHello() view public returns (bytes32)  {\n        return _value;\n    }\n}\n",
  "sourcePath": "/Users/jorgeandrealves/Documents/github/JojocaDapp/contracts/SimpleContract.sol",
  "compiler": {
    "name": "solc",
    "version": "0.4.18+commit.9cf6e910.Emscripten.clang"
  },
  "schemaVersion": "1.0.1",
  "updatedAt": "2018-01-21T18:22:23.999Z"
}