{
  "contractName": "Voting",
  "abi": [
    {
      "constant": true,
      "inputs": [],
      "name": "text",
      "outputs": [
        {
          "name": "",
          "type": "bytes32"
        }
      ],
      "payable": false,
      "stateMutability": "view",
      "type": "function"
    },
    {
      "constant": true,
      "inputs": [
        {
          "name": "candidate",
          "type": "bytes32"
        }
      ],
      "name": "totalVotesFor",
      "outputs": [
        {
          "name": "",
          "type": "uint8"
        }
      ],
      "payable": false,
      "stateMutability": "view",
      "type": "function"
    },
    {
      "constant": true,
      "inputs": [
        {
          "name": "",
          "type": "address"
        }
      ],
      "name": "votesReceived",
      "outputs": [
        {
          "name": "",
          "type": "bytes32"
        }
      ],
      "payable": false,
      "stateMutability": "view",
      "type": "function"
    },
    {
      "constant": true,
      "inputs": [
        {
          "name": "candidate",
          "type": "bytes32"
        }
      ],
      "name": "validCandidate",
      "outputs": [
        {
          "name": "",
          "type": "bool"
        }
      ],
      "payable": false,
      "stateMutability": "view",
      "type": "function"
    },
    {
      "constant": true,
      "inputs": [
        {
          "name": "voter",
          "type": "address"
        }
      ],
      "name": "validVoter",
      "outputs": [
        {
          "name": "",
          "type": "bool"
        }
      ],
      "payable": false,
      "stateMutability": "view",
      "type": "function"
    },
    {
      "constant": true,
      "inputs": [],
      "name": "getNumberCandidates",
      "outputs": [
        {
          "name": "",
          "type": "uint256"
        }
      ],
      "payable": false,
      "stateMutability": "view",
      "type": "function"
    },
    {
      "constant": true,
      "inputs": [
        {
          "name": "",
          "type": "uint256"
        }
      ],
      "name": "voterList",
      "outputs": [
        {
          "name": "",
          "type": "address"
        }
      ],
      "payable": false,
      "stateMutability": "view",
      "type": "function"
    },
    {
      "constant": true,
      "inputs": [
        {
          "name": "",
          "type": "uint256"
        }
      ],
      "name": "candidateList",
      "outputs": [
        {
          "name": "",
          "type": "bytes32"
        }
      ],
      "payable": false,
      "stateMutability": "view",
      "type": "function"
    },
    {
      "constant": false,
      "inputs": [
        {
          "name": "candidate",
          "type": "bytes32"
        },
        {
          "name": "user",
          "type": "address"
        }
      ],
      "name": "voteForCandidate",
      "outputs": [],
      "payable": false,
      "stateMutability": "nonpayable",
      "type": "function"
    },
    {
      "inputs": [
        {
          "name": "candidateNames",
          "type": "bytes32[]"
        },
        {
          "name": "textForVoting",
          "type": "bytes32"
        }
      ],
      "payable": false,
      "stateMutability": "nonpayable",
      "type": "constructor"
    }
  ],
  "bytecode": "0x6060604052341561000f57600080fd5b6040516107a73803806107a783398101604052808051820191906020018051906020019091905050816001908051906020019061004d929190610060565b50806003816000191690555050506100d8565b8280548282559060005260206000209081019282156100a2579160200282015b828111156100a1578251829060001916905591602001919060010190610080565b5b5090506100af91906100b3565b5090565b6100d591905b808211156100d15760008160009055506001016100b9565b5090565b90565b6106c0806100e76000396000f300606060405260043610610099576000357c0100000000000000000000000000000000000000000000000000000000900463ffffffff1680631f1bd6921461009e5780632f265cf7146100cf57806330c880c314610110578063392e66781461016557806341925522146101a4578063493f584c146101f557806350e2e8af1461021e578063b13c744b14610281578063f8852084146102c0575b600080fd5b34156100a957600080fd5b6100b1610306565b60405180826000191660001916815260200191505060405180910390f35b34156100da57600080fd5b6100f460048080356000191690602001909190505061030c565b604051808260ff1660ff16815260200191505060405180910390f35b341561011b57600080fd5b610147600480803573ffffffffffffffffffffffffffffffffffffffff169060200190919050506103e1565b60405180826000191660001916815260200191505060405180910390f35b341561017057600080fd5b61018a6004808035600019169060200190919050506103f9565b604051808215151515815260200191505060405180910390f35b34156101af57600080fd5b6101db600480803573ffffffffffffffffffffffffffffffffffffffff16906020019091905050610459565b604051808215151515815260200191505060405180910390f35b341561020057600080fd5b6102086104fd565b6040518082815260200191505060405180910390f35b341561022957600080fd5b61023f600480803590602001909190505061050a565b604051808273ffffffffffffffffffffffffffffffffffffffff1673ffffffffffffffffffffffffffffffffffffffff16815260200191505060405180910390f35b341561028c57600080fd5b6102a26004808035906020019091905050610549565b60405180826000191660001916815260200191505060405180910390f35b34156102cb57600080fd5b61030460048080356000191690602001909190803573ffffffffffffffffffffffffffffffffffffffff1690602001909190505061056d565b005b60035481565b600080600061031a846103f9565b151561032557600080fd5b60009150600090505b6002805490508110156103d757836000191660008060028481548110151561035257fe5b906000526020600020900160009054906101000a900473ffffffffffffffffffffffffffffffffffffffff1673ffffffffffffffffffffffffffffffffffffffff1673ffffffffffffffffffffffffffffffffffffffff168152602001908152602001600020546000191614156103ca576001820191505b808060010191505061032e565b8192505050919050565b60006020528060005260406000206000915090505481565b600080600090505b60018054905081101561044e57826000191660018281548110151561042257fe5b9060005260206000209001546000191614156104415760019150610453565b8080600101915050610401565b600091505b50919050565b600080600090505b6002805490508110156104f2578273ffffffffffffffffffffffffffffffffffffffff1660028281548110151561049457fe5b906000526020600020900160009054906101000a900473ffffffffffffffffffffffffffffffffffffffff1673ffffffffffffffffffffffffffffffffffffffff1614156104e557600091506104f7565b8080600101915050610461565b600191505b50919050565b6000600180549050905090565b60028181548110151561051957fe5b90600052602060002090016000915054906101000a900473ffffffffffffffffffffffffffffffffffffffff1681565b60018181548110151561055857fe5b90600052602060002090016000915090505481565b610576826103f9565b151561058157600080fd5b61058a81610459565b151561059557600080fd5b816000808373ffffffffffffffffffffffffffffffffffffffff1673ffffffffffffffffffffffffffffffffffffffff1681526020019081526020016000208160001916905550600280548060010182816105f09190610643565b9160005260206000209001600083909190916101000a81548173ffffffffffffffffffffffffffffffffffffffff021916908373ffffffffffffffffffffffffffffffffffffffff160217905550505050565b81548183558181151161066a57818360005260206000209182019101610669919061066f565b5b505050565b61069191905b8082111561068d576000816000905550600101610675565b5090565b905600a165627a7a7230582084d71e3545d5267d939cb3e442a2cf7a4a2984f3637deef6b4f53f74bc9e6c8b0029",
  "source": "pragma solidity ^0.4.18;\n\ncontract Voting {\n  // associate each address that votes to a candidate\n  mapping (address => bytes32) public votesReceived;\n  bytes32[] public candidateList;\n  address[] public voterList;\n  bytes32 public text;\n\n  /* This is the constructor which will be called once when you\n  deploy the contract to the blockchain. When we deploy the contract,\n  we will pass an array of candidates who will be contesting in the election\n  */\n  function Voting(bytes32[] candidateNames, bytes32 textForVoting) public {\n    candidateList = candidateNames;\n    text = textForVoting;\n  }\n\n  // This function returns the total votes a candidate has received so far\n  function totalVotesFor(bytes32 candidate) view public returns (uint8) {\n    require(validCandidate(candidate));\n    uint8 votes = 0;\n\n    for (uint i = 0; i < voterList.length; i++) {\n      if (votesReceived[voterList[i]] == candidate) {\n        votes = votes + 1;\n      }\n    }\n\n    return votes;\n  }\n\n  // This function increments the vote count for the specified candidate. This\n  // is equivalent to casting a vote\n  function voteForCandidate(bytes32 candidate, address user) public {\n    require(validCandidate(candidate));\n    require(validVoter(user));\n    votesReceived[user] = candidate;\n    voterList.push(user);\n  }\n\n  function validCandidate(bytes32 candidate) view public returns (bool) {\n    for (uint i = 0; i < candidateList.length; i++) {\n      if (candidateList[i] == candidate) {\n        return true;\n      }\n    }\n    return false;\n  }\n\n  // SHAME: same logic as validCandidate\n  function validVoter(address voter) view public returns (bool) {\n    for (uint i = 0; i < voterList.length; i++) {\n      if (voterList[i] == voter) {\n        return false;\n      }\n    }\n    return true;\n  }\n\n  function getNumberCandidates() view public returns (uint) {\n    return candidateList.length;\n  }\n}\n",
  "sourcePath": "/Users/miguel/Projs/JojocaDapp/contracts/Voting.sol",
  "compiler": {
    "name": "solc",
    "version": "0.4.18+commit.9cf6e910.Emscripten.clang"
  },
  "schemaVersion": "1.0.1",
  "updatedAt": "2018-02-11T18:00:23.255Z"
}